:100000000C9472000C9486000C9486000C9486006C
:100010000C9486000C9486000C9486000C94860048
:100020000C9486000C9486000C9486000C94860038
:100030000C9486000C9486000C9486000C94860028
:100040000C9486000C9486000C9486000C94860018
:100050000C9486000C9486000C9486000C94880006
:100060000C9486000C9486000C9486000C948600F8
:100070000C9486000C9486000C9486000C948600E8
:100080000C9486000C9486000C9486000C948600D8
:100090000C9486000C9486000C9486000C948600C8
:1000A0000C9486000C9486000C9486000C948600B8
:1000B0000C9486000C9486000C9486000C948600A8
:1000C0000C9486000C9486000C9486000C94860098
:1000D0000C9486000C9486000C9486000C94860088
:1000E0000C94860011241FBECFEFD1E2DEBFCDBF3E
:1000F00000E00CBF22E0A0E0B2E001C01D92A930F8
:10010000B207E1F70E94D2000C9449010C94000060
:100110001F920F920FB60F9211242F933F938F933C
:100120009F93AF93BF938091050290910602A09197
:100130000702B09108023091040223E0230F2D370B
:1001400058F50196A11DB11D20930402809305026C
:1001500090930602A0930702B093080280910002D8
:1001600090910102A0910202B09103020196A11D9B
:10017000B11D8093000290930102A0930202B093FC
:100180000302BF91AF919F918F913F912F910F905B
:100190000FBE0F901F90189526E8230F0296A11D01
:1001A000B11DD2CF789484B5826084BD84B581605E
:1001B00084BD85B5826085BD85B5816085BD809132
:1001C0006E00816080936E001092810080918100AA
:1001D00082608093810080918100816080938100A2
:1001E000809180008160809380008091B100846064
:1001F0008093B1008091B00081608093B0008091C5
:100200009100826080939100809191008160809341
:100210009100809190008160809390008091A10076
:1002200082608093A1008091A10081608093A100F1
:100230008091A00081608093A00080912101826064
:10024000809321018091210181608093210180911F
:10025000200181608093200180917A0084608093E6
:100260007A0080917A00826080937A0080917A008F
:10027000816080937A0080917A00806880937A0010
:100280001092C100C0E0D0E02097F1F30E9400007E
:10029000FBCFF894FFCFFFFFFFFFFFFFFFFFFFFF44
:1002A000FFFFFFFFFFFFFFFFFFFFFFFFFFFFFFFF5E
:1002B000FFFFFFFFFFFFFFFFFFFFFFFFFFFFFFFF4E
:1002C000FFFFFFFFFFFFFFFFFFFFFFFFFFFFFFFF3E
:1002D000FFFFFFFFFFFFFFFFFFFFFFFFFFFFFFFF2E
:1002E000FFFFFFFFFFFFFFFFFFFFFFFFFFFFFFFF1E
:1002F000FFFFFFFFFFFFFFFFFFFFFFFFFFFFFFFF0E
:100300006F725F52656753686F7274004C4F47207D
:10031000486561745F5265674163686965766564C5
:10032000004C4F4720486561745F54656D704163B0
:10033000686965766564004C4F4720486561745F65
:1003400053746F70706564416674657220002C454B
:100350004E4444415441002C48454154003A002C3D
:10036000455854003A002C494E54003A002C534F43
:100370004C5354003A002C504F575354003A003A13
:1003800030003A003A003A30003A003A30003A0081
:100390002C544D5000444154412C61740020616341
:1003A00063656C20666F756E640020706820616400
:1003B0006320666F756E6400206261726F20666FE5
:1003C000756E64004C4F472044657669636520660E
:1003D0006F756E642061742061646472657373204C
:1003E0004F78004C4F47205363616E6E696E6720F3
:1003F000493243004175746F3A20496E69746961EE
:100400006C697A696E6720547572626F2050756DE1
:100410007000544D504F4E004175746F3A20496E34
:10042000697469616C697A696E67204B4E46205227
:100430006F756768696E672050756D7000417574DF
:100440006F3A2053657474696E672050756D7069DA
:100450006E672052617465004175746F3A20496E71
:10046000697469616C697A696E6720466C75696444
:100470002050756D70004175746F3A20496E697433
:1004800069616C697A696E672070482050726F628A
:1004900065004D20456E746572696E672041757404
:1004A0006F73746172742050726F746F636F6C003D
:1004B000544D504F46460020556E6B6E6F776E2040
:1004C000747970650020506665696666657220748F
:1004D0007970650020416C636174656C207479707B
:1004E000650054686520747970652069733A00521C
:1004F000656164696E6720547572626F20747970EB
:10050000652066726F6D206D656D6F7279202E2E7D
:100510002E004D20547572626F4572726F7220000A
:1005200000000A0B02090C0D0E080703040100006D
:1005300000000000000000000000000000000000BB
:100540000000000000000000000000001211100078
:10055000000000000000000000000000000000009B
:1005600000000000000000002200250028002B00F1
:100570002E003100340002010000050108010B01CA
:1005800000002100240027002A002D003000330045
:1005900001010000040107010A0105050505070521
:1005A00008080808020202020A0A080804040404EF
:1005B000010101010101010103030303030303031B
:1005C000040707070C0C0C0C0C0C0C0C02020202AA
:1005D00006060606060606060B0B0B0B0B0B0B0B93
:1005E0000102102020080810204010204080020145
:1005F000020108040201010204081020408080402A
:100600002010080402018004020180402010080428
:1006100002010804020101020408102040800102C6
:10062000040810204080581D9F2611241FBECFEFC4
:10063000D1E2DEBFCDBF00E00CBF13E0A0E0B2E02E
:10064000E6E8F9E500E00BBF02C007900D92AE3C72
:10065000B107D9F726E0AEECB3E001C01D92A9398D
:10066000B207E1F713E0C4E1D3E000E006C0219750
:100670000109802FFE010E946E2BC331D10780E05B
:100680000807A9F70E94081E0C94B12C0C940000D6
:10069000CF92DF92EF92FF92CF93DF93EC016A014A
:1006A0007B0160E079E08DE390E0A70196010E9474
:1006B0004C2B2150310941095109569547953795E1
:1006C0002795E889F98982E08083211580E1380740
:1006D00098F0E889F989108260E874E88EE190E08A
:1006E000A70196010E944C2B215031094109510963
:1006F0005695479537952795EC85FD853083EE8592
:10070000FF852083188EEC89FD8986E08083EA8945
:10071000FB89808180618083EA89FB898081886090
:100720008083EA89FB89808180688083EA89FB89EC
:1007300080818F7D8083DF91CF91FF90EF90DF905C
:10074000CF90089590E0FC01E052FA4F2491865634
:100750009A4FFC018491882399F090E0880F991FAB
:10076000FC01E058FA4FA591B491FC01EA59FA4F07
:10077000859194918FB7F894EC91E22BEC938FBF15
:100780000895282F30E0F901E05EFA4F9491F901C5
:10079000E052FA4F449126563A4FF9012491222310
:1007A00009F435C0992311F191509231F8F4E92FF1
:1007B000F0E08827E152FC4F8F4F0C946E2B100411
:1007C0001404F10308040C04F60317041D042104A7
:1007D00027042B042F0435043904F6033D04430495
:1007E0004704809180008F7780938000E22FF0E0B3
:1007F000EE0FFF1FEA59FA4FA591B4918FB7F89405
:10080000EC91611148C040954E234C938FBF0895E1
:10081000809180008F7DE8CF80918000877FE4CF3A
:1008200084B58F7784BDE2CF84B58F7DFBCF809177
:10083000B0008F778093B000D9CF8091B0008F7DCA
:10084000F9CF809190008F7780939000CFCF8091E7
:1008500090008F7DF9CF80919000877FF5CF8091B8
:10086000A0008F778093A000C1CF8091A0008F7DE2
:10087000F9CF8091A000877FF5CF809120018F77FD
:1008800080932001B3CF809120018F7DF9CF80919B
:100890002001877FF5CF4E2BB8CFCF93DF93EC01AC
:1008A00088E00E94A203209731F460E088E0DF91A5
:1008B000CF910C94C103CF3FD10511F461E0F6CF85
:1008C000E8E2F5E0E491E150E23108F0B2C0F0E096
:1008D0008827E259FB4F8F4F0C946E2B80048704BE
:1008E0008C049604A0041905AA04B204BA04C40432
:1008F000CE04D804E704F1041905FB0405050F052F
:1009000084B5806884BDC7BDDF91CF91089584B55B
:10091000806284BDC8BDF8CF8091800080688093DC
:100920008000D0938900C0938800EECF8091800032
:10093000806280938000D0938B00C0938A00E4CFC4
:1009400080918000886080938000D0938D00C09358
:100950008C00DACF8091B00080688093B000C093A3
:10096000B300D2CF8091B00080628093B000C0937A
:10097000B400CACF80919000806880939000D0939B
:100980009900C0939800C0CF8091900080628093BE
:100990009000D0939B00C0939A00B6CF80919000B6
:1009A000886080939000D0939D00C0939C00ACCF52
:1009B0008091A00080688093A0008091A0008F7B30
:1009C0008093A000D093A900C093A8009DCF8091F0
:1009D000A00080628093A000D093AB00C093AA00D7
:1009E00093CF8091A00088608093A000D093AD0049
:1009F000C093AC0089CF8091200180688093200152
:100A0000D0932901C09328017FCF8091200180627B
:100A100080932001D0932B01C0932A0175CF809140
:100A20002001886080932001D0932D01C0932C0178
:100A30006BCFC038D1050CF041CF37CF3FB7F8941A
:100A40008091970490919804A0919904B0919A0490
:100A500026B5A89B05C02F3F19F00196A11DB11D19
:100A60003FBFBA2FA92F982F8827BC01CD01620F55
:100A7000711D811D911D42E0660F771F881F991F10
:100A80004A95D1F708958F929F92AF92BF92CF92DD
:100A9000DF92EF92FF924B015C010E941E056B01F9
:100AA0007C010E941E056C197D098E099F09683E14
:100AB000734081059105A8F321E0821A9108A108ED
:100AC000B10888EEC80E83E0D81EE11CF11C811429
:100AD0009104A104B10429F7FF90EF90DF90CF902B
:100AE000BF90AF909F908F9008952FB7F89460912A
:100AF00093047091940480919504909196042FBF73
:100B0000089508950895FC012481358162177307C3
:100B100048F480819181009729F0860F971FFC018E
:100B20008081089580E008950895AF92BF92CF929A
:100B3000DF92EF92FF920F931F93CF93DF936C019D
:100B40007B018B01040F151FEB015E01AE18BF087E
:100B5000C017D10759F06991D601ED91FC91019030
:100B6000F081E02DC6011995892B79F7C501DF9138
:100B7000CF911F910F91FF90EF90DF90CF90BF909A
:100B8000AF900895FC01538D448D252F30E0842FC4
:100B900090E0821B930B541710F0CF9608950197A5
:100BA0000895FC01918D828D981761F0A28DAE0F92
:100BB000BF2FB11D5D968C91928D9F5F9F73928F19
:100BC00090E008958FEF9FEF08958F929F92AF92DC
:100BD000BF92CF92DF92EF92FF920F931F93CF932A
:100BE000DF937C016A018B01D0E0C0E00E947505B3
:100BF000F7016087718782879387C7010E94D105BB
:100C000097FF22C00E947505F70180849184A28419
:100C1000B384681979098A099B0984809580A68024
:100C2000B780681579058A059B0538F3CE01DF91F9
:100C3000CF911F910F91FF90EF90DF90CF90BF90D9
:100C4000AF909F908F9008958D30910579F3F801C2
:100C500081938F012196CC16DD0641F6E7CFFC018A
:100C6000918D828D981731F0828DE80FF11D858D61
:100C700090E008958FEF9FEF0895FC01918D228DF4
:100C8000892F90E0805C9F4F821B91098F73992779
:100C900008958EE095E00E943D0621E0892B09F43D
:100CA00020E0822F08958BEA95E00E943D0621E026
:100CB000892B09F420E0822F0895FC01A48DA80F50
:100CC000B92FB11DA35ABF4F2C91848D90E001968E
:100CD0008F739927848FA689B7892C93A089B189AE
:100CE0008C91837080648C93938D848D981306C04F
:100CF0000288F389E02D80818F7D80830895EF92B3
:100D0000FF920F931F93CF93DF93EC0181E0888FC5
:100D10009B8D8C8D98131AC0E889F989808185FF95
:100D200015C09FB7F894EE89FF896083E889F98937
:100D300080818370806480839FBF81E090E0DF9139
:100D4000CF911F910F91FF90EF900895F62E0B8D8C
:100D500010E00F5F1F4F0F731127E02E8C8D8E1147
:100D60000CC00FB607FCFACFE889F989808185FFAE
:100D7000F5CFCE010E945D06F1CFEB8DEC0FFD2F7C
:100D8000F11DE35AFF4FF0829FB7F8940B8FEA8969
:100D9000FB8980818062CFCF0F931F93CF93DF9326
:100DA0008C01D0E0C0E0F801EC0FFD1F64916623D8
:100DB00041F08BEA95E00E947F06892B11F0219685
:100DC000F2CFCE01DF91CF911F910F910895682F3F
:100DD0008BEA95E00C947F060C947F06CF93DF930B
:100DE000EC01888D8823B9F0AA89BB89E889F98943
:100DF0008C9185FD03C0808186FD0DC00FB607FC78
:100E0000F7CF8C9185FFF2CF808185FFEDCFCE01AA
:100E10000E945D06E9CFDF91CF91089520910404EF
:100E2000260F3327331F21323105ECF42091E404DF
:100E3000FC0190E080E0243069F082E00895A09108
:100E400004042191AC014C515C4FA40FB52FB11D8E
:100E50002C930196861798F380910404680F609391
:100E6000040480E0089581E008951092E40481E094
:100E70008093E3041092BE0461E084E10E94C10308
:100E800061E085E10E94C103E9EBF0E080818E7FA3
:100E9000808380818D7F808388E48093B80085E49F
:100EA0008093BC000895CF93DF9391E09093E30388
:100EB0008823B9F0C091B800D091BA008091BC00ED
:100EC0008A7B8093BC0060E084E10E94C10360E003
:100ED00085E10E94C1030E943507D093BA00C093F8
:100EE000B800DF91CF9108958F929F92AF92BF92F9
:100EF000CF92DF92EF92FF920F931F93CF93DF93E6
:100F0000D0910D05D13208F0D7C0182FC0910C0533
:100F10000E941E056B017C018091E40481116BC06D
:100F200082E08093E4041093E3048FEF8093E20463
:100F30001092E104D093E004ACEEB4E0E0ECF4E015
:100F400080E0D81391C01092BF048091BF04CC0FF1
:100F5000C82BC093BF048091BE04813009F088C0C3
:100F60001092BE040E941E056B017C018091BF049B
:100F70008093BB008091E6049091E704A091E8047F
:100F8000B091E904892B8A2B8B2BA1F00E941E05BE
:100F90000091E6041091E7042091E8043091E904FF
:100FA0006C197D098E099F0906171707280739074D
:100FB00008F442C08091BC0083FDD8CF85EC8093BB
:100FC000BC000E941E056B017C018091E40482300C
:100FD00009F450C08091E2048F3F09F46FC0809102
:100FE000E204803209F46CC08091E204803309F499
:100FF00069C084E026C08091E6049091E704A09146
:10100000E804B091E904892B8A2B8B2B09F484CF57
:101010000E941E058090E6049090E704A090E804EA
:10102000B090E9046C197D098E099F098616970610
:10103000A806B90608F070CF8091E5040E94530716
:1010400085E01092EB0410920D051092EA04DF91F6
:10105000CF911F910F91FF90EF90DF90CF90BF90B5
:10106000AF909F908F9008959D9191938F5F69CFDE
:1010700085EEA5CF8091E6049091E704A091E80465
:10108000B091E904892B8A2B8B2B09F49ECF0E9407
:101090001E050091E6041091E7042091E8043091C8
:1010A000E9046C197D098E099F090617170728079F
:1010B000390708F08ACFC0CF81E0C3CF80E0C1CF2D
:1010C00082E0BFCF83E0BDCF0895E0919D04809181
:1010D0009C04E81730F4F0E0E256FB4F808190E08A
:1010E00008958FEF9FEF089590919D0480919C0447
:1010F0002FEF3FEF981748F4E92FF0E0E256FB4F4F
:10110000208130E09F5F90939D04C90108958091F4
:101110009C0490919D04891B990B0895CF92DF92B6
:10112000EF92FF920F931F93CF93DF937C01CB013C
:101130008A012091EA04222389F0EB016B01C40E9D
:10114000D51ECC15DD0569F06991D701ED91FC91B3
:101150000190F081E02DC7011995F3CF642F0E9413
:101160000E07C801DF91CF911F910F91FF90EF9073
:10117000DF90CF900895CF93DF931F92CDB7DEB766
:1011800069832091EA042223F9F020910D05203291
:1011900058F021E030E0FC013383228390E080E0CE
:1011A0000F90DF91CF9108958091EB04E82FF0E04C
:1011B000E451FB4F998190838F5F8093EB04809380
:1011C0000D0581E090E0ECCF61E0CE0101960E9438
:1011D0000E07F7CF90E080E008958EE095E00E9442
:1011E0003D06181619062CF48EE095E00E94D105F4
:1011F000F4CF0895662319F061E00C94C10360E018
:10120000FCCFCF93C82F682F83E390E00E94FA08A9
:1012100081E3C11101C080E380930702CF9108955B
:10122000EEECF3E08381819383E0EF3DF807D1F7A3
:1012300080E38093DF038093E0038093E1030895CC
:10124000CF93662391F18130D9F481E38093010239
:10125000C2E261E080E20E94C10361E08C2F0E9443
:10126000C10364E670E080E090E00E94430560E026
:101270008C2F0E94C10360E080E2CF910C94C103E7
:10128000823029F481E380930202C4E2E2CF83300A
:1012900029F481E380930302CAE2DBCF843009F5AD
:1012A00081E380930402CCE2D4CF813029F480E33F
:1012B00080930102CEE1CDCF823029F480E3809388
:1012C0000202C6E2C6CF833029F480E38093030292
:1012D000C8E2BFCF843029F480E380930402C0E3E6
:1012E000B8CFCF910895CF93C62F8230F9F020F474
:1012F000813089F0CF910895833019F18430D1F78E
:1013000087E290E00E94FA0881E3C11101C080E306
:1013100080930C02EFCF8DE290E00E94FA0881E307
:10132000C11101C080E380930902E4CF8FE290E015
:101330000E94FA0881E3C11101C080E380930A0290
:10134000D9CF89E290E00E94FA0881E3C11101C07F
:1013500080E380930B02CECFCF93C82F682F88E213
:1013600090E00E94FA08CC2359F081E380930502B3
:1013700061E082E00E947309C0939B04CF910895BD
:1013800080E38093050260E0F4CFCF93813021F0B9
:10139000823031F0CF910895862FCF910C940109BE
:1013A000C62F8BE290E00E94FA0881E3C11101C0D0
:1013B00080E380930802EECFFC01908590538185F5
:1013C00080532AE0929F800D11240895EFE7F2E008
:1013D0008DE0819392E0ED39F907D9F70895FF92F6
:1013E0000F931F93CF93DF93F82E8B01EA010E9496
:1013F000E60980E380937F028093800291E39093DB
:10140000810221E0F2124AC090938202E0E3E0936D
:101410008302C80164E670E00E94382BAB016CE9DE
:1014200064039001659F300D1124200F311FC90105
:101430006AE070E00E94382B86EF689F200D11242F
:10144000205D20938602605D60938502405D40933D
:101450008402E09387028C2F805D80938802EFE600
:10146000F2E0A9E8B2E0CE0181599D4F21912D9380
:101470008E179F07D9F7EFE7F2E090E080E0AE012A
:10148000475F5F4F9F012F573240421753074CF081
:101490002191820F911D27FD9A95F4CF80938202AE
:1014A000B5CF60E071E00E94382B9C0164E670E0EB
:1014B0000E94382BFE01E757FD4F60834CE946033D
:1014C000C001479F900D1124820F931F6AE070E0C6
:1014D0000E94382BDE01A657BD4F6C93C557DD4FD8
:1014E0008081849F200D112486EF689F200D112498
:1014F00028838081805D80838C91805D8C9388813E
:10150000805D888381E0DF91CF911F910F91FF90E3
:10151000089580910002882309F0A89508950F93FB
:101520001F93CF93DF930E94890A80912B0482330B
:1015300021F48091010280932B0480912C0482334A
:1015400021F48091020280932C0480912D04823337
:1015500021F48091030280932D0480912E04823324
:1015600021F48091040280932E0480912B04803317
:1015700009F04DC0809301020EE180912C0480336C
:1015800009F04DC08093020216E280912D04803351
:1015900009F04DC080930302D8E280912E0480337D
:1015A00009F04DC080930402C0E361E080E20E9434
:1015B000C10361E0802F0E94C10361E0812F0E947E
:1015C000C10361E08D2F0E94C10361E08C2F0E9456
:1015D000C10364E670E080E090E00E94430560E0B3
:1015E000802F0E94C10360E0812F0E94C10360E050
:1015F0008D2F0E94C10360E08C2F0E94C10360E028
:1016000080E2DF91CF911F910F910C94C1030DE007
:10161000813309F0B2CF8093010202E2AECF1DE028
:10162000813309F0B2CF8093020214E2AECFDDE045
:10163000813309F0B2CF80930302DAE2AECFCDE07E
:10164000813309F0B2CF80930402CCE2AECFEBE25B
:10165000F4E080E3808382E3818381E38283838378
:101660000C948F0AEBE2F4E080E38083818382E3D1
:10167000828381E383830C948F0A0F931F93CF930C
:10168000DF930E94890ACFE7D2E069916D3041F083
:10169000062E000C770B8EE095E00E94EC06F5CF4D
:1016A0006DE070E08EE095E00E94EC064EE150E0C7
:1016B0006DE372E08EE095E00E94E505EC010E948A
:1016C000890A2B970CF447C08DE392E00E94DC0955
:1016D000C82F882309F43FC08FE792E00E94DC09FD
:1016E000C81318C081E030E020E0D0E0882359F032
:1016F00081E0F901E158FD4F6285F901E35CFD4F9E
:101700009285691380E02F5F3F4F2C173D0774F3DC
:1017100081111CC08EE092E00E94CC06CDE3D2E0A5
:101720008E010D5312408DE392E00E94DC09219658
:101730008017110629F024F089850E94E706F0CF72
:101740006DE070E08BEA95E00E94EC06DF91CF91AE
:101750001F910F91089580E0F9CFCF93C82F80E3B8
:1017600080936F028093700281E38093710243E063
:1017700050E06AE170E081E00E94EF090E943D0BB9
:1017800010926F0210927302109274028C2F64E612
:101790000E942C2B282F809370023CE93203C00159
:1017A00011248C0F911D6AE070E00E94382B609329
:1017B0007102239FC00D112486EF689FC00D112474
:1017C000C0937202EFE6F2E08191DF011197805D34
:1017D0008C9382E0E537F807B9F746E050E063EC18
:1017E00072E081E00E94EF09CF910C943D0B282F0D
:1017F00064E60E942C2B382F4CE94303C0011124CE
:10180000820F911D6AE070E00E94382BEFE6F2E053
:1018100080E3830F808380E3860F8183205D349F84
:10182000200D112486EF689F200D1124228343E0B0
:1018300050E064EC72E081E00E94EF090C943D0BF3
:10184000CF93DF93C82F0E94E6090E94890A80E3A4
:1018500080937F028093800291E390938102909322
:10186000820280938302CC23C9F0C4E8D2E0DE0177
:10187000E3EAF2E081918D9382E0E23BF807D1F751
:101880000E943D0BE2EBF2E08191899382E0E13C22
:10189000F807D1F7DF91CF910C943D0BE1ECF2E02A
:1018A000A4E8B2E081918D9382E0E03DF807D1F7A2
:1018B000F1CF109200020FB6F894A89580916000C5
:1018C000886180936000109260000FBE089581E0EF
:1018D0008093000288E199E20FB6F894A89580936E
:1018E00060000FBE909360000895CF92DF92EF9258
:1018F000FF920F931F93CF93DF93A0915406B09163
:1019000055069091610621E02093EA0490930C051E
:101910001092EB0410920D05ED91FC91119701903E
:10192000F081E02D682FCD01199581E00E947407A8
:10193000C82F882359F090E080E0DF91CF911F916C
:101940000F91FF90EF90DF90CF900895D0916106B6
:101950000E941E056B017C018091E404811164C02A
:1019600081E08093E4048093E3049FEF9093E2048A
:101970001092E1048093E0048093BF048091BF043F
:10198000DD0FD82BD093BF048091BE04813009F0C5
:1019900092C01092BE040E941E056B017C018091D2
:1019A000BF048093BB008091E6049091E704A0916E
:1019B000E804B091E904892B8A2B8B2BA1F00E94BB
:1019C0001E050091E6041091E7042091E80430918F
:1019D000E9046C197D098E099F0906171707280766
:1019E000390708F442C08091BC0083FDD8CF85EC54
:1019F0008093BC000E941E056B017C018091E40471
:101A0000813009F45AC08091E104823008F077C037
:101A10008091E104A0ECB4E0EEE9F4E0C81749F1EC
:101A20009D919193CF5FFACF8091E6049091E70466
:101A3000A091E804B091E904892B8A2B8B2B09F43F
:101A40008BCF0E941E050091E6041091E7042091BF
:101A5000E8043091E9046C197D098E099F09061785
:101A600017072807390708F077CF8091E5040E940F
:101A7000530710929D04C0939C04C23009F05BCFC1
:101A80008091540690915506DC01ED91FC91028401
:101A9000F385E02D1995C82F809154069091550635
:101AA000DC01ED91FC910284F385E02D199520E095
:101AB000822B9C2B42CF85EE9BCF8091E6049091A8
:101AC000E704A091E804B091E904892B8A2B8B2BC1
:101AD00009F494CF0E941E050091E6041091E704DA
:101AE0002091E8043091E9046C197D098E099F0961
:101AF000061717072807390708F080CFB6CF82E00E
:101B000089CFFB0101900020E9F73197AF01461B17
:101B1000570B0C9495058F929F92AF92BF920F93A3
:101B20001F93CF93DF93CDB7DEB7A1970FB6F8948D
:101B3000DEBF0FBECDBF19A2423008F44AE08E01CD
:101B40000F5D1F4F842E912CB12CA12CA501940167
:101B50000E944C2BE62FB901CA01EA3004F5E05D82
:101B6000D801EE938D01232B242B252B79F790E0C0
:101B700080E0109729F0BD018BEA95E00E94810D6D
:101B8000A1960FB6F894DEBF0FBECDBFDF91CF9107
:101B90001F910F91BF90AF909F908F900895E95C37
:101BA000DFCFCF92DF92EF92FF92CF93DF936C0162
:101BB000990FEE08FF08F7FE17C08DE20E94E706B6
:101BC000EC0166277727CB016C197D098E099F09E7
:101BD0004AE00E948B0D8C0F9D1FDF91CF91FF90EB
:101BE000EF90DF90CF9008954AE0C701B601DF91F2
:101BF000CF91FF90EF90DF90CF900C948B0D60E031
:101C000082E30E94C10360E08EE20E94C103109251
:101C100071041092600410925F041092620410929A
:101C2000610410926404109263041092660410928E
:101C3000650487E393E00E94CC068091670490914D
:101C400068040E94D10D6DE070E08BEA95E00E947F
:101C5000EC068091E203882319F181E293E00E946F
:101C6000CC066DE070E08BEA95E00E94EC06809176
:101C700067049091680480319E407CF08CE093E092
:101C80000E94CC066DE070E08BEA95E00E94EC06C5
:101C90001092680410926704089584EF92E0F0CFE8
:101CA0008DED92E0EDCFCF92DF92EF92FF920F9306
:101CB0001F93CF93DF930E94890A83EE93E00E94E3
:101CC000CC066DE070E08BEA95E00E94EC06009196
:101CD0002F048AE0C82ED12CE12CF12CC0E011E0B9
:101CE000DC2D1093EA04C0920C051092EB041092C4
:101CF0000D0581E00E94740781111CC0CF5F84EC48
:101D000093E00E94CC0640E1C701B6010E948B0D12
:101D100088EB93E0D03631F0D834D9F510932F0406
:101D20008AEA93E00E94CC066DE070E08BEA95E0D1
:101D30000E94EC06CA3019F18FEFC81AD80AE80AD7
:101D4000F80A8FE7C816D104E104F10449F680913E
:101D50002F048823A1F0011112C080E092E090933B
:101D60005A068093590680E090E0A0E0B0E48093AA
:101D70005D0690935E06A0935F06B09360068C2F7D
:101D8000DF91CF911F910F91FF90EF90DF90CF9057
:101D90000895D33549F68DE993E0C4CF4F925F9211
:101DA0006F927F928F929F92AF92BF92CF92DF926B
:101DB000EF92FF920F931F93CF936B017C01742ED0
:101DC000AC019B010E94F22A62E673E0811126C0F9
:101DD00046015701E894B7F82FEF3FEF4FE75FE771
:101DE000C501B4010E94F22A81110CC02FEF3FEF10
:101DF0004FE75FE7C501B4010E94312866E673E052
:101E0000181664F02FEF3FEF4FE75FE4C701B6010C
:101E10000E949D2A1816ACF46AE673E08BEA95E0FE
:101E2000CF911F910F91FF90EF90DF90CF90BF90D7
:101E3000AF909F908F907F906F905F904F900C9499
:101E4000810D2FEF3FEF4FE75FECC701B6010E9416
:101E5000312887FDE1CF20E030E0A901C701B601BC
:101E60000E94312810E000E087FF08C08DE20E9448
:101E7000E7068C01F7FAF094F7F8F094C0E060E020
:101E800070E080E09FE37C1641F020E030E040E22B
:101E900051E40E94F529CF5FF6CFA70196010E9479
:101EA00089292B013C010E946E2A4B015C014AE00A
:101EB0000E948B0D7C01E00EF11ECC23B1F1C50117
:101EC000B4010E9436289B01AC01C301B2010E94FB
:101ED00088294B015C018EE20E94E706E80EF91E9C
:101EE000C15018F120E030E040E251E4C501B401F6
:101EF0000E9497282B013C010E946E2A4B01B12CB5
:101F0000A12C4AE0C501B4010E948B0DE80EF91E18
:101F1000C501B4010E9436289B01AC01C301B20186
:101F20000E9488294B015C01DBCFC701CF911F9133
:101F30000F91FF90EF90DF90CF90BF90AF909F9068
:101F40008F907F906F905F904F900895CF93DF9325
:101F50000E94CC06EC016EE673E08BEA95E00E94ED
:101F6000810D8C0F9D1FDF91CF9108950F931F93CB
:101F7000CF93DF9385E993E00E94CC060E9475051C
:101F80004AE00E948B0D80E993E00E94CC0680918C
:101F90007B04882309F46BC0813009F4C4C086E750
:101FA00093E00E94CC06C5E0D2E00FE012E084E7A7
:101FB00093E00E94CC0689910E94E7060C171D074A
:101FC000B1F78DE693E00E94CC06C1E0D2E08BE64B
:101FD00093E00E94CC0689910E94E706F2E0C530AA
:101FE000DF07A9F786E693E00E94CC06C3E1D2E0C2
:101FF00084E693E00E94CC06699179918991999148
:1020000042E00E94CE0E82E0C333D80789F78FE505
:1020100093E00E94CC068DE593E00E94CC0660918F
:102020000F0270911002809111029091120242E011
:102030000E94CE0E87E593E00E94CC06C1E6D4E074
:1020400009E614E08AE30E94E706899199910E94CB
:10205000D10D0C171D07B1F78EE493E00E94CC065A
:102060008DE0DF91CF911F910F910C94E7068EE8E0
:1020700093E00E94CC06609133027091340290E0AC
:1020800080E04AE00E948B0D8BE893E00E94CC0632
:102090008BE893E00E94CC0689E893E00E94CC068E
:1020A000609135027091360290E080E04AE00E9433
:1020B0008B0D86E893E00E94CC0686E893E00E94B0
:1020C000CC0686E893E00E94CC0684E893E00E9468
:1020D000CC068091370290913802CAE0C89FB001C7
:1020E000C99F700D112490E080E04AE00E948B0DA2
:1020F00082E893E00E94CC068091390290913A02E6
:10210000C89FB001C99F700D112490E080E04AE0A3
:102110000E948B0D8FE793E00E94CC068FE793E03F
:102120000E94CC063CCF07E314E0D0E0C0E08DE78E
:1021300093E00E94CC06CA30D10569F460E374E0F4
:102140008BEA95E00E94810D21960C5F1F4FCB30EA
:10215000D10569F724CFF801608171818281938173
:102160004AE00E948B0DF0CFAF92BF92CF92DF92E8
:10217000EF92FF920F931F93CF93DF93DC01CD90EB
:10218000DC901197C114D10439F01496CD91DC91F3
:102190008C017601209761F4DF91CF911F910F910F
:1021A000FF90EF90DF90CF90BF90AF9008957501B2
:1021B0005701BFEFAB1ABB0AF7018081082E000C54
:1021C000990B0E942828892B91F72197CC0DDD1DB2
:1021D0008881082E000C990B0E942828892B29F051
:1021E000CE15DF0510F02197F3CFAE014F5F5F4FA3
:1021F0004E195F09D80115965C934E931497CE142F
:10220000DF0420F4B701C6010E94732CD801ED91C0
:10221000FC91119714968D919C91E80FF91F1082F3
:10222000BBCF0F931F93CF93DF938C01EB01FC0186
:10223000808191810097E1F0688179816115710554
:10224000A9F0428153812C813D814217530770F0E0
:102250000E94902C8C819D81F801958384831D823E
:102260001C82DF91CF911F910F9108950E945327F7
:1022700088819981F801918380838A819B819383EE
:1022800082838C819D8195838483198218821B822D
:102290001A82E5CFCF93DF93EC0188819981009773
:1022A00011F00E945327198218821D821C821B8202
:1022B0001A82DF91CF910895FC018081918100976E
:1022C00011F00C94532708950F931F93CF93DF932E
:1022D000EC0188819981009759F02A813B8126176A
:1022E000370730F081E0DF91CF911F910F91089572
:1022F0008B016F5F7F4F0E94922B009759F099835B
:1023000088831B830A832C813D81232B59F7FC0191
:102310001082E8CF80E0E7CFEF92FF920F931F93F8
:10232000CF93DF93EC01FB01E080F180E114F10435
:1023300011F10481158101151105A9F08C819D8190
:10234000080F191FB801CE010E946411882399F06B
:10235000288139818C819D81B701820F931F0E9452
:10236000902C1D830C83CE01DF91CF911F910F9193
:10237000FF90EF900895CE010E944A11F4CFEF92A2
:10238000FF920F931F93CF93DF93EC018B01CB014F
:102390000E940A287C01BC01CE010E9464118111B7
:1023A0000BC0CE010E944A11CE01DF91CF911F9147
:1023B0000F91FF90EF900895FD82EC82B801888123
:1023C00099810E940328F0CFEF92FF920F931F9301
:1023D000CF93DF93EC017B018A01BA010E94641163
:1023E00081110BC0CE010E944A11CE01DF91CF9125
:1023F0001F910F91FF90EF9008951D830C83B701FB
:10240000888199810E94902CF0CFFB0101900020DF
:10241000E9F73197AF01461B570B0C94E411CF93AA
:10242000DF93EC01FB018617970749F0608171810A
:102430006115710541F0448155810E94E411CE017E
:10244000DF91CF9108950E944A11F9CFFC011182CA
:1024500010821382128215821482FB0101900020E7
:10246000E9F73197AF01461B570B0C94E411CF925B
:10247000DF92EF92FF920F931F93CF93DF936C0144
:102480007B018A014617570720F48F2D7A01062F0A
:10249000182F60E773E0C6010E942612C0917B06E8
:1024A000D0917C06EC16FD06F8F40C171D0708F415
:1024B000E801E0917706F0917806EC0FFD1F10819E
:1024C000108260917706709178066E0D7F1DC601AF
:1024D0006115710599F00E9405128091770690911F
:1024E0007806C80FD91F1883C601DF91CF911F91BD
:1024F0000F91FF90EF90DF90CF9008950E944A11C6
:10250000ECCF1F93CF93DF9300D000D0CDB7DEB7D1
:10251000860F971FFC011082CE0101960E942612A1
:10252000BE016F5F7F4F87E796E00E941111CE01D9
:1025300001960E945C1145E050E070E060E0CE0141
:1025400001960E9437128D819E81892B49F061E7A7
:1025500073E089819A810E94872C11E0892B09F010
:1025600010E0CE0101960E945C1180E01123B1F0D1
:1025700040917B0650917C0665E070E0CE010196AB
:102580000E943712BE016F5F7F4F87E796E00E947F
:102590001111CE0101960E945C1181E026960FB6C2
:1025A000F894DEBF0FBECDBFDF91CF911F9108958C
:1025B000CF93DF9300D000D0CDB7DEB767E773E0ED
:1025C000CE0101960E94261261E776E0CE010196C7
:1025D0000E948C11BC0181E796E00E940F12CE018F
:1025E00001960E945C11E1E7F6E04481558160812B
:1025F00071818EE095E00E94950560E773E08EE0C2
:1026000095E00E94810D6EE673E08EE095E00E94F9
:10261000810D26960FB6F894DEBF0FBECDBFDF91B9
:10262000CF9108950F931F93CF93DF93CDB7DEB76C
:10263000C456D1090FB6F894DEBF0FBECDBFFE0160
:102640003196CE018B599F4F8F011192E817F907F0
:10265000E1F780919B0481110E94ED080E94D8123D
:1026600060E773E087E796E00E94051284E991E154
:10267000A0E0B0E08093120590931305A093140599
:10268000B093150543E650E0B8018EE095E00E9456
:10269000E505B8010E948112CC59DF4F0FB6F894BE
:1026A000DEBF0FBECDBFDF91CF911F910F91089577
:1026B000CF930E94590C81E080938C0480E395E7CE
:1026C000A0E0B0E080935F0290936002A09361026B
:1026D000B093620282E994E00E94A60F68E873E179
:1026E00080E090E00E94430561E081E30E94C10325
:1026F000C1E3C0930D0286E794E00E94A60F68E84C
:1027000073E180E090E00E94430561E085E30E9470
:10271000C103C0930E0288E594E00E94A60F68E80A
:1027200073E180E090E00E94430560916D06709136
:102730006E0680916F06909170060E94672ACB0109
:102740000E944D048DE394E00E94A60F68E873E1B7
:1027500080E090E00E94430581E00E94010988E149
:1027600094E00E94A60F60EC74ED81E090E00E947E
:10277000430581E00E94AC0968E873E180E090E0E5
:102780000E94430580917B04882369F08130A1F089
:1027900084EF93E00E94A60F60ED77E080E090E088
:1027A000CF910C94430562E174E081E796E00E94CA
:1027B000BF110E941213ECCF81E00E94200CE8CFE1
:1027C0000F931F93CF93DF9300D000D000D01F92C0
:1027D000CDB7DEB780919B0481110E94ED080E9465
:1027E000D8128CED95E0A0E0B0E0809312059093B4
:1027F0001305A0931405B09315054AE050E0BE01FF
:102800006F5F7F4F8EE095E00E94E505BE016F5F30
:102810007F4F0E9481128823D9F080917B0690918E
:102820007C06892BA1F000917706109178066091C3
:10283000830670918406C8010E94972C009739F096
:102840009C01201B310B81E02F3F3F4F09F480E0BA
:102850002A960FB6F894DEBF0FBECDBFDF91CF91A1
:102860001F910F910895CF93DF9300D000D0CDB783
:10287000DEB76CE773E0CE0101960E9426126DE789
:1028800076E0CE0101960E948C11BC018DE796E0A6
:102890000E940F12CE0101960E945C11EDE7F6E056
:1028A00044815581608171818BEA95E00E94950594
:1028B0008DE00E94E70626960FB6F894DEBF0FBEA5
:1028C000CDBFDF91CF91089585ED8093BC008091BD
:1028D000E6049091E704A091E804B091E90407961A
:1028E000A11DB11D23E0B695A795979587952A95CB
:1028F000D1F72091BC0024FD03C01092E404089598
:102900004091E6045091E7046091E8047091E90475
:10291000452B462B472B69F30097A105B10541F0E4
:102920002AE22A95F1F700C00197A109B109E1CF88
:102930008091E5040C94530780917B00886080931C
:102940007B0082E480937C0080917A008064809395
:102950007A0080917A0086FDFCCF609178007091BA
:102960007900072E000C880B990B0E9438280E94D2
:10297000AA2A2FE135E847E052EC0E94972824EA82
:1029800030EB4EE653E40E9489290E94672ACB016E
:102990000895CF92DF92EF92FF92CF93DF93EC01F5
:1029A00090936204809361040E949C14BC01990F6F
:1029B000880B990B0E94382860931B0270931C02AD
:1029C00080931D0290931E0220E030E0A9010E9436
:1029D000312887FF0CC00E94FF0D86EC92E00E9418
:1029E000CC066DE070E08BEA95E00E94EC06C090AA
:1029F0001B02D0901C02E0901D02F0901E0220E00D
:102A000030E042EC52E4C701B6010E949D2A18163C
:102A100024F581E08093E20320E030E046EC52E4CC
:102A2000C701B6010E949D2A181684F460E082E373
:102A30000E94C10360E08EE20E94C1031092640410
:102A4000109263041092660410926504DF91CF9196
:102A5000FF90EF90DF90CF90089520E030E048ECB9
:102A600052E4C701B6010E94312887FFD5CFC2309A
:102A7000D105B9F0C330D10539F1C130D10561F6C6
:102A800061E082E30E94C10360E08EE20E94C10324
:102A9000D0936404C093630410926604109265049A
:102AA000BBCF60E082E30E94C10361E08EE20E943E
:102AB000C103109264041092630481E090E090934B
:102AC000660480936504A8CF61E082E30E94C1039D
:102AD00061E08EE20E94C10381E090E09093640483
:102AE00080936304ECCFCF92DF92EF92FF920F932B
:102AF0001F93CF93DF9300D000D01F921F92CDB7CA
:102B0000DEB782EE93E0EEECF3E010E311938E1764
:102B10009F07E1F74EE150E06EEC73E08BEA95E041
:102B20000E94E5058091CE03853521F48091CF0385
:102B3000803239F06FE773E08DE796E00E9405126E
:102B4000B0C08091D003803509F4F3C054F58234CD
:102B500009F4FFC3883409F403C58F3309F04AC26E
:102B60000E9410098091CE03893409F08BC01A822B
:102B700019821C821B821E821D8269E876E0CE01CA
:102B800001960E940F12BE016F5F7F4F8DE796E0A6
:102B90000E941111CE0101960E945C110E94331413
:102BA00080C0843509F4DFC3863509F44CC383350E
:102BB00009F020C20E9410098091CE03823509F0ED
:102BC00053C28091CF03853409F075C18091D00341
:102BD000833509F06AC28091D103853409F065C25A
:102BE0008091D203843509F060C28091D30383348D
:102BF00009F05BC28091D4038F3409F056C28091F2
:102C0000D5038D3409F051C28091D603813309F088
:102C10004CC28EE095E00E94EE06E0912005F09116
:102C2000210580818F7E8083E0912005F091210530
:102C30008081877F8083E0912005F091210580814C
:102C40008F778083E0912005F091210580818F7D31
:102C50008083809128058093270564E670E080E0FA
:102C600090E00E94430540E855E260E070E08EE0AD
:102C700095E00E94480362E873E08DE796E00E94C9
:102C800005128CCF863449F41A8219821C821B8269
:102C90001E821D826FE876E072CF843489F40E9430
:102CA000B60F28960FB6F894DEBF0FBECDBFDF91EA
:102CB000CF911F910F91FF90EF90DF90CF900895EB
:102CC000823319F40E94530EECCF823581F42091A7
:102CD0009506309196062115310511F429E936E063
:102CE000CE010196821B930B0E94D10DDACF843561
:102CF00009F080C160917B0470E090E080E04AE0E0
:102D00000E948B0D80917B04882329F0813071F023
:102D10008FE192E002C08CE392E00E94CC066DE06D
:102D200070E08BEA95E00E94EC06BBCF8DE292E06A
:102D3000F4CF0E94100963E876E08DE796E00E94E8
:102D40000F128091CE038435B9F48091CF038D3476
:102D500009F0ABC18091D003803509F0A6C1809104
:102D6000D2038E3421F481E00E94AC0917CF86345F
:102D700009F09BC180E0F8CF8B34F1F48091CF0350
:102D80008E3409F092C18091D003863409F08DC150
:102D90008091D1039FEC980F923008F02BC1909155
:102DA000D30361E09E3421F0963409F07EC160E0E7
:102DB00080530E94C509F2CE8235F9F48091CF0389
:102DC000873409F072C18091D003813409F06DC15C
:102DD0008091D2038E3441F461E08AE20E94C10303
:102DE00081E380930602DACE863409F05EC160E0AA
:102DF0008AE20E94C10380E3F4CF8035D1F4809150
:102E0000CF03883409F051C18091D1038E3441F44D
:102E100061E081E30E94C10381E380930D02BECE95
:102E2000863409F042C160E081E30E94C10380E37F
:102E3000F4CF8335F9F48091CF03823409F035C1A2
:102E40008091D003853409F030C18091D2038E3453
:102E500041F461E085E30E94C10381E380930E02A7
:102E60009DCE863409F021C160E085E30E94C10354
:102E700080E3F4CF863409F018C18091CF03813408
:102E800009F013C18091D0038E3409F00EC18091F6
:102E9000D1039FEC980F943008F0ACC09091D3030D
:102EA00061E09E3421F0963409F0FFC060E0805369
:102EB0000E94730973CE813409F09CC08091D003C5
:102EC000843509F0F2C08091D103853409F0EDC05A
:102ED000A091D3030A2E000CBB0BD09720E432E460
:102EE0004FE050E00E94762B6B017C01A091D4034F
:102EF0000A2E000CBB0BD09720EA36E841E050E0E8
:102F00000E94762BDC01CB018C0D9D1DAE1DBF1DDB
:102F10002091D503022E000C330B2053310940E1E0
:102F200057E2249F6001259FD00C349FD00C1124C0
:102F30000D2C000CEE08FF088C0D9D1DAE1DBF1D55
:102F40002091D603022E000C330B2053310948EE9A
:102F500053E0249F6001259FD00C349FD00C112496
:102F60000D2C000CEE08FF088C0D9D1DAE1DBF1D25
:102F70002091D703022E000C330B2053310944E675
:102F8000429F6001439FD00C11240D2C000CEE08D1
:102F9000FF088C0D9D1DAE1DBF1D2091D803022E74
:102FA000000C330B205331094AE0429F6001439FDC
:102FB000D00C11240D2C000CEE08FF088C0D9D1D6B
:102FC000AE1DBF1D4091D903042E000C550B40537C
:102FD0005109052E000C660B770B840F951FA61F59
:102FE000B71F2091D203253421F13CF4213491F014
:102FF000243489F166E973E040CE293419F124358F
:10300000C9F78093630290936402A0936502B09322
:10301000660208C080935B0290935C02A0935D02FD
:10302000B0935E0263E876E08DE796E00E940F12AF
:10303000B5CD80936B0290936C02A0936D02B09318
:103040006E02F0CF8093670290936802A0936902AA
:10305000B0936A02E7CF80935F0290936002A093DF
:103060006102B0936202DECF843491F48091CF0389
:10307000823409F0BFCF8091D1038E3421F481E0F6
:1030800080937A04CFCF863481F410927A04CACF29
:10309000823471F48091CF03813409F0ABCF8091F9
:1030A000D103877F863409F4BDCFF110FACDA2CFCA
:1030B000813491F48091CF03833489F3853509F00D
:1030C00099CF8091D003843581F78091D1038F34DB
:1030D00061F70E94581362CD873589F48091CF0340
:1030E000843409F087CF8091D1038E3419F40E9483
:1030F000670C98CF8634C9F60E94590C93CF84355B
:10310000E1F58091CF03853509F074CF8091D0032C
:10311000803311F560E081E090E00E946029109218
:103120007B0480E892E00E94CC0660917B0470E012
:1031300090E080E04AE00E948B0D6DE070E08BEA49
:1031400095E00E94EC0680917B04882381F0813019
:1031500089F081E592E0E1CD813319F761E081E00A
:1031600090E00E94602981E080937B04DACF8CE6B6
:1031700092E0D3CD8EE592E0D0CD803509F03ACF04
:103180008091CF03823509F035CF8091D00381340F
:1031900009F08BCF8091D103843509F086CF8091DF
:1031A000D303082E000C990BC09724E6289FB0018A
:1031B000299F700D11248091D403082E000C990BC7
:1031C000C0974AE0489F9001499F300D1124620F3B
:1031D000731F8091D503082E000C990BC097680FC0
:1031E000791F072E000C880B990B0E94382820E0CD
:1031F00030E048EC52E40E94F52920E030E04FE74F
:1032000053E40E9497286B017C0120E030E0A90183
:103210000E949D2A20E030E040E05FE387FD0EC081
:10322000C701B6010E9489290E94672A0E94382896
:103230000E94672ACB010E944D04F4CEC701B6015B
:103240000E948829F1CF0E94100963E876E08DE79B
:1032500096E00E940F128091CE039FEC980F94305D
:1032600050F461E09091D0039E3409F060E0805307
:103270000E94200993CC8434C1F48091CF03893417
:1032800009F0B8CE8091D003823509F0B3CE80E347
:1032900080932B0481E380932C0492E390932D047C
:1032A00080932E040E948F0A79CC893409F580918D
:1032B000CF03833509F09ECE8091D0038F3409F07F
:1032C00099CE8091D1038D3441F48091D20361E095
:1032D000833509F08FCE84E0CBCF893409F08ACED4
:1032E0008091D2038E3409F085CE0E94320B56CCE9
:1032F0008E34D9F48091CF03813409F07BCE809154
:10330000D003863409F076CE8091D103893439F424
:1033100081E380932B0490E390932C04BFCF8635F8
:1033200009F068CE0E94270B39CC8D3409F062CEAB
:103330008091CF03833509F05DCE8091D0038F3427
:1033400009F058CE8091D1038E3409F053CE60E05D
:10335000C2CF0E94750581E080938D0410928C0489
:103360006AE873E08ACC0E94100980917B0488236C
:1033700051F0813009F099CE80919B04811180C079
:103380006FE873E0D9CB63E876E08DE796E00E94C2
:103390000F128091CE038F34B1F48091CF038E341D
:1033A00061F46FEA72E081E796E00E94BF110E942B
:1033B000E013882309F41ECEF1CB68EA72E086346C
:1033C00009F018CEF0CF64EA72E0833561F360EA69
:1033D00072E0823441F36CE972E08E3421F367E9E4
:1033E00072E0833401F3823509F004CE63E972E0C0
:1033F00081E796E00E94BF1101ED13E086EDC82E33
:1034000083E0D82EF801F1908F011A8219821C8274
:103410001B821E821D8261E776E0CE0101960E942A
:103420000F12FF821886ED80FE80FFEFEF1AFF0A71
:10343000B701CE0101960E9464118823E1F0298131
:103440003A818D819E81BE01695F7F4F820F931FFC
:103450000E94902CFE82ED82BE016F5F7F4F81E75C
:1034600096E00E940F12CE0101960E945C11C016D8
:10347000D10641F69CCFCE0101960E944A11ECCFB5
:1034800063E876E08DE796E00E940F128091CE030C
:103490008F3491F48091CF038E3439F40E94331429
:1034A00081E00E94200CF82E00CE863409F0A2CDD7
:1034B0000E94331480E0F5CF8335B9F48091CF03B7
:1034C000813331F40E94331484E60E94AD0BEBCFBC
:1034D0000E9433149091D00390538091D103805374
:1034E0002AE0929F800D1124F0CF8035B9F48091AD
:1034F000CF03813331F40E94331484E60E94F70B2A
:10350000D2CF0E9433149091D00390538091D10375
:103510008053EAE09E9F800D1124F0CF813409F0A2
:1035200069CD0E94331481E380936F02809370020F
:10353000809371028093720280937302809374026D
:1035400046E050E069E070E081E00E94EF090E94EF
:103550003D0B8111A6CB85EB92E00E94CC06A1CB5E
:103560000E94100963E876E08DE796E00E940F1252
:10357000E090CE038FEC8E0D833008F03BCD809130
:10358000D0038E34D9F50E2C000CFF08F0E3EF1AAF
:10359000F1081092E20381E08093710461E084E01D
:1035A0000E9420090E94320B0E94270B60E08AE2F1
:1035B0000E94C1031093060281E00E9401098091DC
:1035C0007B04813019F480E00E94200C80915F041C
:1035D00090916004892B51F40E94750560936904F1
:1035E00070936A0480936B0490936C04F09260046F
:1035F000E0925F04C7010E94C914D0CA0E94FF0D67
:10360000CDCA0E94530681110E94731580E090E09C
:10361000892B29F00E94490681110E94000080E058
:1036200090E0892B49F080E090E0892B29F00E94FE
:10363000000081110E94000080E090E0892B49F099
:1036400080E090E0892B29F00E94000081110C9409
:10365000000008951F920F920FB60F9211242F931E
:103660003F938F939F93AF93BF93809193049091D7
:103670009404A0919504B09196043091920423E0B3
:10368000230F2D3758F50196A11DB11D20939204EB
:103690008093930490939404A0939504B09396041C
:1036A0008091970490919804A0919904B0919A0404
:1036B0000196A11DB11D8093970490939804A09347
:1036C0009904B0939A04BF91AF919F918F913F91CC
:1036D0002F910F900FBE0F901F90189526E8230F83
:1036E0000296A11DB11DD2CF1F920F920FB60F925D
:1036F00011240BB60F922F933F934F935F936F93C9
:103700007F938F939F93AF93BF93EF93FF938EE03D
:1037100095E00E945D06FF91EF91BF91AF919F915F
:103720008F917F916F915F914F913F912F910F906A
:103730000BBE0F900FBE0F901F9018951F920F9207
:103740000FB60F9211240BB60F922F938F939F9366
:10375000EF93FF93E0911E05F0911F058081E091AA
:103760002405F091250582FD1DC0908180912705DB
:103770008F5F8F7320912805821741F0E091270514
:10378000F0E0E25FFA4F958F80932705FF91EF916C
:103790009F918F912F910F900BBE0F900FBE0F90A6
:1037A0001F9018958081F2CF1F920F920FB60F9243
:1037B00011240BB60F922F933F934F935F936F9308
:1037C0007F938F939F93AF93BF93EF93FF938BEA76
:1037D00095E00E945D06FF91EF91BF91AF919F919F
:1037E0008F917F916F915F914F913F912F910F90AA
:1037F0000BBE0F900FBE0F901F9018951F920F9247
:103800000FB60F9211240BB60F922F938F939F93A5
:10381000EF93FF93E091BB05F091BC058081E091AF
:10382000C105F091C20582FD1DC090818091C40543
:103830008F5F8F732091C505821741F0E091C40519
:10384000F0E0E555FA4F958F8093C405FF91EF9115
:103850009F918F912F910F900BBE0F900FBE0F90E5
:103860001F9018958081F2CF1F920F920FB60F9282
:1038700011240BB60F922F933F934F935F936F9347
:103880007F938F939F93AF93BF93EF93FF93809119
:10389000B900887F803609F44DC008F040C08832F6
:1038A00009F4A9C028F5803109F49DC0C8F4882323
:1038B00009F4FBC0883009F496C0FF91EF91BF91E5
:1038C000AF919F918F917F916F915F914F913F91B8
:1038D0002F910F900BBE0F900FBE0F901F90189559
:1038E000883109F488C0803241F78093E20414C023
:1038F000803409F49DC040F48033B9F38833E9F68D
:103900008093E20485ECB0C0803509F485C0883529
:1039100009F496C0883489F60E946414CECF8839A1
:1039200009F48CC038F5883729F050F4883611F046
:10393000803719F683E08093E4041092260457C080
:10394000883809F47BC0803919F0803809F0B5CF88
:1039500080912604803208F071C0E091260481E055
:103960008E0F809326048091BB00F0E0EA5FFB4F4E
:1039700080833DC0803B39F0E0F4803A09F479C09F
:10398000883A09F09ACF84E08093E4041092050409
:1039900010920404E0912904F0912A041995809171
:1039A000040481110FC081E0809304041092E403A9
:1039B00009C0803C09F4A6CF883C09F4A3CF883B1A
:1039C00009F07BCFE091050481E08E0F8093050420
:1039D000F0E0EC51FC4F80818093BB009091050496
:1039E0008091040429C08091BF048093BB0085ECC2
:1039F0008093BC0062CF9091E1048091E00498171D
:103A000058F5E091E10481E08E0F8093E104F0E04D
:103A1000E054FB4F8081E9CFE091E10481E08E0F1B
:103A20008093E1048091BB00F0E0E054FB4F808381
:103A30009091E1048091E0049817C8F285E8D8CF0E
:103A4000E091E10481E08E0F8093E1048091BB005E
:103A5000F0E0E054FB4F80838091E30481115CCF60
:103A600081E08093BE0484EA8093BC001092E40459
:103A700024CF85EC8093BC001092E404809126044E
:103A8000803230F4E0912604F0E0EA5FFB4F1082D0
:103A90006091260470E0E0912704F091280486E00C
:103AA00094E019951092260408CF1092E20434CFC6
:103AB000CF93DF93EEE0F5E01382128288EE93E07D
:103AC000A0E0B0E084839583A683B78322E433E04B
:103AD000318320834DEC50E0558744874CEC50E017
:103AE0005787468748EC50E0518B408B49EC50E0BB
:103AF000538B428B4AEC50E0558B448B4EEC50E09C
:103B0000578B468B118E128E138E148EEBEAF5E0D6
:103B10001382128284839583A683B78331832083A3
:103B200025EC30E03587248724EC30E03787268782
:103B300020EC30E0318B208B21EC30E0338B228B7A
:103B400022EC30E0358B248B26EC30E0378B268B53
:103B5000118E128E138E148EE8E4F6E01382128218
:103B600084839583A683B78384E593E091838083E0
:103B700069E973E08FE896E00E9426126DE973E030
:103B800089E896E00E94261262EA73E083E896E0F4
:103B90000E94261260E773E08DE796E00E942612ED
:103BA00060E773E087E796E00E94261260E773E023
:103BB00081E796E00E94261280E090E0A8E5B2E45A
:103BC00080936D0690936E06A0936F06B093700677
:103BD000E4E5F6E013821282148280E094E096839A
:103BE000858380E890E09087878380E090E0A0E87C
:103BF000BFE381879287A387B487A2E6B6E088E017
:103C0000ED0119928A95E9F7168ADF91CF9108950F
:103C1000CF93DF93CDB7DEB7A4970FB6F894DEBF8E
:103C20000FBECDBF789484B5826084BD84B58160B9
:103C300084BD85B5826085BD85B5816085BD809177
:103C40006E00816080936E001092810080918100EF
:103C500082608093810080918100816080938100E7
:103C6000809180008160809380008091B1008460A9
:103C70008093B1008091B00081608093B00080910A
:103C80009100826080939100809191008160809387
:103C90009100809190008160809390008091A100BC
:103CA00082608093A1008091A10081608093A10037
:103CB0008091A00081608093A000809121018260AA
:103CC0008093210180912101816080932101809165
:103CD000200181608093200180917A00846080932C
:103CE0007A0080917A00826080937A0080917A00D5
:103CF000816080937A0080917A00806880937A0056
:103D00001092C1000E94670C0E94890A40E855E2A7
:103D100060E070E08BEA95E00E94480365EA73E09A
:103D20008BEA95E00E94810D6DE070E08BEA95E0F2
:103D30000E94EC061EE1812F0E94A2031F5F163332
:103D4000D1F78DE00E94A20361E08DE00E94C103E3
:103D500090E080E00E944D040E94890A8FEE94E07A
:103D60000E94CC0681E090E00E945829182F809391
:103D70007B0482EE94E00E94CC06612F70E090E01C
:103D800080E04AE00E948B0D10917B0484ED94E06A
:103D9000112331F085EC94E0113011F087EB94E0C1
:103DA0000E94CC066DE070E08BEA95E00E94EC0684
:103DB00040E855E260E070E08EE095E00E94480344
:103DC00081E00E94AC0968EE73E080E090E00E9420
:103DD0004305112309F4D9C0113009F4DFC068EE9E
:103DE00073E080E090E00E94430580E00E94AC090F
:103DF0000E94890A10929D0410929C041092EB0478
:103E000010920D050E94350781E895E090932A04F1
:103E10008093290482E895E09093280480932704F6
:103E20000E94530E68EB73E08DE796E00E94051246
:103E30000E94331481E080937A0480E380932B0402
:103E400081E380932C0492E390932D0480932E04BD
:103E50000E948F0A0E94270B0E94320B812C912C0A
:103E600030E8A32E3FEBB32E9E01215F3F4F3E8FE4
:103E70002D8F48EE442E43E0542E612C712C0E946D
:103E8000890A0E947505C0908E04D0908F04E0903E
:103E90009004F09091046C157D058E059F0508F047
:103EA00081C00E94750560938E0470938F04809387
:103EB00090049093910480918D0481110EC00E9412
:103EC000750561327F4B8240910538F081E0809327
:103ED0008C040E94590C0E94581380918C048823F2
:103EE000E9F00E947505C0908804D0908904E090A4
:103EF0008A04F0908B046C157D058E059F0508F0F3
:103F00005EC00E9475056093880470938904809355
:103F10008A0490938B0481E080938D040E94750540
:103F2000C0908404D0908504E0908604F0908704CB
:103F30006C157D058E059F0508F04EC060E08DE094
:103F40000E94C10360ED77E080E090E00E944305AD
:103F500061E08DE00E94C10360ED77E080E090E0D9
:103F60000E94430511E01093EA0488E480930C0555
:103F70001092EB0410920D0581E00E9474078823D3
:103F800009F49DC010922F049CC060EB74E081E79F
:103F900096E00E94BF110E94121321CF80E00E9480
:103FA000200C1DCF0E9475056C197D098E099F0993
:103FB00061347C498105910508F073CF7CCF0E9464
:103FC00075056C197D098E099F0961337547810557
:103FD000910508F096CFA2CF0E9475056C197D0956
:103FE0008E099F0900916B0210916C0220916D0265
:103FF00030916E02061717072807390708F49ECF7D
:104000000E947505C0908004D0908104E0908204E5
:10401000F09083046C157D058E059F0508F028C17E
:1040200081E08093EA0480E680930C051092EB0413
:1040300010920D0581E00E9474070E949C14BC013F
:10404000990F880B990B0E94382860931B0270937C
:104050001C0280931D0290931E020E9475056093BE
:1040600080047093810480938204909383048091F0
:104070009B04882309F425C10E947505C0907C0427
:10408000D0907D04E0907E04F0907F046C157D0557
:104090008E059F0508F001C180917B04882309F4F7
:1040A000A4C1813009F4EBC40E94750560937C04BF
:1040B00070937D0480937E0490937F0402C11093DB
:1040C0002F0488E496E0909355068093540688E484
:1040D0008093610681E08093EA041092EB041092D1
:1040E0000D050E94740780912F04882309F468C08D
:1040F00000915B0610915C068091590690915A06DA
:10410000082B192B80915806882309F470C003608E
:10411000116880915406909155062091610631E016
:104120003093EA0420930C051092EB0410920D05D5
:10413000DC01ED91FC910190F081E02D61E0199599
:104140008091540690915506DC01ED91FC9101900F
:10415000F081E02D612F19958091540690915506BC
:10416000DC01ED91FC910190F081E02D602F19951B
:1041700081E00E94740780915806882309F440C0AA
:1041800081E00E94750C97FFFBCF80E00E94750CC8
:1041900024E0969587952A95E1F78115B8E09B076D
:1041A00008F0906FBC01990F880B990B0E9438287A
:1041B00060930F0270931002809311029093120289
:1041C00080912F04811108C080920F0290921002FA
:1041D000A0921102B09212020E94750560938404AD
:1041E00070938504809386049093870409CF80910F
:1041F00056069091570683609068082B192B89CF3B
:1042000080915B0690915C06803C910528F08BE3E1
:1042100096E00197F1F7B9CF803A910518F08BEC51
:1042200097E0F7CF8038910538F061E070E080E0EA
:1042300090E00E944305A9CF8036910528F062E006
:1042400070E080E090E0F5CF8034910528F064E0E4
:1042500070E080E090E0EDCF809728F068E070E0BB
:1042600080E090E0E6CF60E170E080E090E0E1CFB8
:104270000E9475056C197D098E099F0900916702DE
:10428000109168022091690230916A02061717079F
:104290002807390708F4C4CEEACE0E9475050091BC
:1042A0006302109164022091650230916602C00E93
:1042B000D11EE21EF31EC616D706E806F90608F45C
:1042C000EBCE80917A048823E1F00E947505C090BE
:1042D0007604D0907704E0907804F09079046C151F
:1042E0007D058E059F0508F0EAC40E94B60F0E9466
:1042F00075056093760470937704809378049093A7
:1043000079040E947505C0907204D0907304E09007
:104310007404F09075046C157D058E059F0508F0FA
:10432000E3C40E94750560937204709373048093D4
:1043300074049093750480917104882309F4F5C482
:1043400081E00E9401090E947505C0906D04D09023
:104350006E04E0906F04F09070046C157D058E057E
:104360009F0508F0D6C40E947505C0906904D090DE
:104370006A04E0906B04F0906C046C157D058E056A
:104380009F0508F4D5C40E94750520E8C20E2EEEE4
:10439000D21E26E3E21EF11C6C157D058E059F05DD
:1043A00008F4C6C40E94FF0D0E94750500916904BF
:1043B00010916A0420916B0430916C04601B710BA6
:1043C000820B930BA30192010E944C2B3093680443
:1043D000209367040E94750560936D0470936E04CA
:1043E00080936F0490937004A0C460E773E0CE01E3
:1043F00047960E9426126AEC73E081E796E00E94DD
:1044000005120E941213882309F4E9C0E0907B068C
:10441000F0907C060091770610917806E114F10483
:1044200009F4E2C06CE270E0C8010E947C2C0097A5
:1044300009F4DAC0801B910B9A838983FE013196BF
:104440006F01D6018D919D916D0101968E159F058D
:1044500008F0CDC06CE270E0800F911F0E947C2CB0
:10446000009709F4C4C0801B910BF60191838083EF
:104470002D8D3E8D2C153D0521F70F8118856D8101
:104480007E816F5F7F4FA801CE0141960E94371257
:10449000BE016F5E7F4FCE0147960E941111CE0183
:1044A00041960E945C11CE0147960E94B4108B8DFC
:1044B0009C8D8330910509F423C108F09BC08130A5
:1044C000910509F4EFC0029709F4FBC049855A85AC
:1044D000B8016F5F7F4FCE0141960E943712BE0137
:1044E0006F5E7F4FCE0147960E941111CE0141961B
:1044F0000E945C11CE0147960E94B4108B8D9C8D5A
:104500008230910509F4BFC108F06BC1019709F42D
:10451000ABC10D851E856B857C856F5F7F4FA801C4
:10452000CE0141960E943712BE016F5E7F4FCE01D1
:1045300047960E941111CE0141960E945C11CE0156
:1045400047960E94B4108B8D9C8D8230910509F4A2
:10455000EEC18330910509F409C2019771F470E04E
:1045600060E0CE0147960E948305082E000C990B4F
:10457000C09790933802809337024F855889B801CD
:104580006F5F7F4FCE0141960E943712BE016F5E72
:104590007F4FCE0147960E941111CE0141960E9495
:1045A0005C11CE0147960E94B4108B8D9C8D823099
:1045B000910509F410C28330910509F42BC20197CB
:1045C00071F470E060E0CE0147960E948305082EEA
:1045D000000C990BC09790933A0280933902CE0158
:1045E00047960E945C1160CD8FEF9FEF25CF8FEF34
:1045F0009FEF3BCF8430910509F4B7C0059709F0D0
:1046000065CF70E060E0CE0147960E948305F82EEA
:1046100061E070E0CE0147960E9483052F2DFF0CCC
:10462000330B2053310940E157E2249F7001259F4D
:10463000F00C349FF00C1124082E000C990BC0973D
:1046400048EE53E0849F9001859F300D949F300D7C
:104650001124E20EF31E62E070E0CE0147960E9444
:104660008305082E000C990BC09744E6489F9001E3
:10467000499F300D1124E20EF31E63E070E0CE017D
:1046800047960E948305082E000C990BC0974AE0BC
:10469000489F9001499F300D1124E20EF31E64E003
:1046A00070E054C070E060E0CE0147960E94830540
:1046B000082E000C990BC09790933402809333021C
:1046C00005CF70E060E0CE0147960E948305F82E8A
:1046D00061E070E0CE0147960E9483054F2DFF0CEC
:1046E000550B405351099AE0949F9001959F300DCE
:1046F0001124082E000C990BC097820F931FDCCF5A
:1047000070E060E0CE0147960E948305F82E61E0DC
:1047100070E0CE0147960E9483052F2DFF0C330BCE
:104720002053310994E6929F7001939FF00C11245D
:10473000082E000C990BC0974AE0489F9001499FB2
:10474000300D1124E20EF31E62E070E0CE014796B8
:104750000E948305082E000C990BC097E80EF91EE5
:10476000F0923402E0923302B1CE70E060E0CE010C
:1047700047960E948305F82E61E070E0CE014796CF
:104780000E9483052F2DFF0C330B2053310948EE77
:1047900053E0249F7001259FF00C349FF00C1124EE
:1047A000082E000C990BC09744E6489F9001499F42
:1047B000300D1124E20EF31E62E070E0CE01479648
:1047C0000E948305082E000C990BC0974AE0489F71
:1047D0009001499F300D1124E20EF31E63E070E05A
:1047E000B5CF8330910509F46DC0049709F091CEDF
:1047F00070E060E0CE0147960E948305182F61E0CB
:1048000070E0CE0147960E948305212F110F330BD4
:104810002053310948EE53E0249F8001259F100D5D
:10482000349F100D1124082E000C990BC09744E6FC
:10483000489F9001499F300D1124020F131F62E021
:1048400070E0CE0147960E948305082E000C990B5C
:10485000C0974AE0489F9001499F300D1124020FF4
:10486000131F63E070E054C070E060E0CE01479633
:104870000E948305082E000C990BC0979093360276
:104880008093350246CE70E060E0CE0147960E94EC
:104890008305182F61E070E0CE0147960E948305E2
:1048A000412F110F550B405351099AE0949F9001ED
:1048B000959F300D1124082E000C990BC097820F84
:1048C000931FDCCF70E060E0CE0147960E94830525
:1048D000182F61E070E0CE0147960E948305212FDA
:1048E000110F330B2053310994E6929F8001939F5F
:1048F000100D1124082E000C990BC0974AE0489F18
:104900009001499F300D1124020F131F62E070E0E7
:10491000CE0147960E948305082E000C990BC09784
:10492000080F191F1093360200933502F2CD70E084
:1049300060E0CE0147960E948305F82E61E070E0AA
:10494000CE0147960E9483054F2DFF0C550B405317
:1049500051099AE0949F9001959F300D1124082EE3
:10496000000C990BC097820F931F03CE70E060E09C
:10497000CE0147960E948305F82E61E070E0CE01DB
:1049800047960E9483052F2DFF0C330B20533109CE
:1049900094E6929F7001939FF00C1124082E000C56
:1049A000990BC0974AE0489F9001499F300D112410
:1049B000E20EF31E62E070E0CE0147960E9483058E
:1049C000082E000C990BC097E80EF91EF0923802E1
:1049D000E0923702D2CD70E060E0CE0147960E94AF
:1049E0008305182F61E070E0CE0147960E94830591
:1049F000412F110F550B405351099AE0949F90019C
:104A0000959F300D1124082E000C990BC097820F32
:104A1000931FE1CD70E060E0CE0147960E948305D0
:104A2000182F61E070E0CE0147960E948305212F88
:104A3000110F330B2053310994E6929F8001939F0D
:104A4000100D1124082E000C990BC0974AE0489FC6
:104A50009001499F300D1124020F131F62E070E096
:104A6000CE0147960E948305082E000C990BC09733
:104A7000080F191F10933A0200933902B0CD8DE34D
:104A800080936F028FE38093700242E050E06FE208
:104A900071E080E00E94EF090E94890A0FE712E0AE
:104AA000D8016D918D016D3041F0062E000C770B11
:104AB0008EE095E00E94EC06F3CF6DE070E08EE0B2
:104AC00095E00E94EC064EE150E06DE372E08EE06E
:104AD00095E00E94E5058C010E94890A0B301105C2
:104AE0000CF451C08DE392E00E94DC09282F30E0E5
:104AF0002115310509F447C0873010F026E030E079
:104B0000A7E4B2E0E0E3F4E08D918193CF0180531C
:104B1000944082179307C4F3109135041033B9F50C
:104B20000E94E60910937F021093800281E3809334
:104B30008102109382021093830287E3282E84E07F
:104B4000382E90EDE92E92E0F92EE4E8F2E090E0C4
:104B500080E0D701A80FB91F2C91219301968B30CB
:104B60009105B9F70E94890A0FE712E0F8016191F7
:104B70008F016D30E9F0062E000C770B8EE095E08A
:104B80000E94EC06F3CF80E380933004C5CF82E12E
:104B900095E00E94CC0660E374E08BEA95E00E9409
:104BA000810D6DE070E08BEA95E00E94EC067CCA16
:104BB0006DE070E08EE095E00E94EC064EE150E082
:104BC0006DE372E08EE095E00E94E5058C010E94A5
:104BD000890A0B3011050CF46EC08DE392E00E943F
:104BE000DC0990E0009709F466C02DB73EB73CA3FE
:104BF0002BA39C012F5F3F4F4DB75EB7421B530B5A
:104C00000FB6F8945EBF0FBE4DBFADB7BEB71196DD
:104C10006D018A0F9B1F20E3FC012083B8A3AF8F97
:104C20000DE312E0A8014D5352405AA349A38DE36E
:104C300092E00E94DC090F5F1F4FA9A1BAA18A1759
:104C40001B0649F044F0F8018185AF8DB8A18D9322
:104C5000B8A3AF8FE7CFC6010E94DC27EBA1FCA170
:104C60000FB6F894FEBF0FBEEDBFD1016D937D93DB
:104C70008D939D931D01BBE0EB0EF11CEFE52E160D
:104C8000E4E03E0609F061CF60913704709138048A
:104C90008091390490913A042AE030E040E050E0FD
:104CA0000E944C2B209337043093380440933904EE
:104CB00050933A04F9C960E070E0CB01D6CF0E946E
:104CC00075056C197D098E099F0900915F0210918D
:104CD00060022091610230916202061717072807CF
:104CE000390708F402CB0DCB0E9475056C197D09BC
:104CF0008E099F0900915B0210915C0220915D0278
:104D000030915E02061717072807390708F409CB08
:104D100012CB0E9475056C197D098E099F09653FAC
:104D200071408105910508F01ECB0E94011BA7C8A8
:104D300080915F04909160040E94C91435CB81E793
:104D400096E00E945C1187E796E00E945C118DE777
:104D500096E00E945C1183E896E00E945C1189E86D
:104D600096E00E945C118FE896E00C945C110F9322
:104D70001F93CF93DF938230910510F482E090E08F
:104D8000E0919706F091980630E020E0B0E0A0E0D6
:104D9000309799F42115310509F44AC0281B390BC5
:104DA00024303105D8F58A819B816115710589F11F
:104DB000FB0193838283FE0111C0408151810281F6
:104DC000138148175907E0F04817590799F41097CD
:104DD00061F012960C93129713961C933296CF01A2
:104DE000DF91CF911F910F91089500939706109333
:104DF0009806F4CF2115310551F04217530738F0CA
:104E0000A901DB019A01BD01DF01F801C1CFEF016A
:104E1000F9CF9093980680939706CDCFFE01E20FCD
:104E2000F31F819391932250310939832883D7CF7F
:104E30002091950630919606232B41F420919F02F4
:104E40003091A002309396062093950620919D0202
:104E500030919E022115310541F42DB73EB74091A6
:104E6000A1025091A202241B350BE0919506F0910E
:104E70009606E217F307A0F42E1B3F0B28173907FD
:104E800078F0AC014E5F5F4F2417350748F04E0FA6
:104E90005F1F5093960640939506819391939FCF01
:104EA000F0E0E0E09CCFCF93DF930097E9F0FC01C6
:104EB000329713821282A0919706B0919806ED0165
:104EC00030E020E01097A1F420813181820F931F00
:104ED00020919506309196062817390709F061C090
:104EE000F0939606E0939506DF91CF910895EA013D
:104EF000CE17DF07E8F54A815B819E014115510518
:104F0000B1F7E901FB83EA8349915991C40FD51F99
:104F1000EC17FD0761F4808191810296840F951F43
:104F2000E90199838883828193819B838A83F0E05E
:104F3000E0E012968D919C9113970097B9F52D9111
:104F40003C911197CD010296820F931F20919506F7
:104F5000309196062817390739F6309751F5109297
:104F6000980610929706B0939606A0939506BCCF2C
:104F7000D383C28340815181840F951FC817D907FD
:104F800061F44E5F5F4F88819981480F591F5183AB
:104F900040838A819B81938382832115310509F0A7
:104FA000B0CFF0939806E09397069ECFFD01DC0109
:104FB000C0CF13821282D7CF1F93FC019927882775
:104FC000BC01E89411911032E9F3193010F01E3051
:104FD000C8F31B3251F01D3249F4689406C00E9498
:104FE0001328610F711D811D911D119110531A30ED
:104FF000B0F33EF490958095709561957F4F8F4FFB
:105000009F4F1F910895FB01DC0105900D92002038
:10501000E1F70895FC0105900020E9F7809590954F
:105020008E0F9F1F0895592F482F372F262F660F59
:10503000771F881F991F660F771F881F991F620FA0
:10504000731F841F951F660F771F881F991F089570
:1050500091110C940429803219F089508550C8F7B9
:1050600008950E94732808F481E00895E89409C027
:1050700097FB3EF490958095709561957F4F8F4F8B
:105080009F4F9923A9F0F92F96E9BB279395F695A1
:10509000879577956795B795F111F8CFFAF4BB0F1F
:1050A00011F460FF1BC06F5F7F4F8F4F9F4F16C083
:1050B000882311F096E911C0772321F09EE8872F0D
:1050C000762F05C0662371F096E8862F70E060E0C9
:1050D0002AF09A95660F771F881FDAF7880F969542
:1050E000879597F90895990F0008550FAA0BE0E8E6
:1050F000FEEF16161706E807F907C0F0121613069A
:10510000E407F50798F0621B730B840B950B39F4D9
:105110000A2661F0232B242B252B21F408950A263F
:1051200009F4A140A6958FEF811D811D08950E946D
:10513000AA280C941E290E94102938F00E941729D1
:1051400020F0952311F00C9407290C940D291124BB
:105150000C9452290E942F2970F3959FC1F3950F4B
:1051600050E0551F629FF001729FBB27F00DB11DEB
:10517000639FAA27F00DB11DAA1F649F6627B00D7B
:10518000A11D661F829F2227B00DA11D621F739F64
:10519000B00DA11D621F839FA00D611D221F749F72
:1051A0003327A00D611D231F849F600D211D822FB9
:1051B000762F6A2F11249F5750409AF0F1F08823E0
:1051C0004AF0EE0FFF1FBB1F661F771F881F91500D
:1051D0005040A9F79E3F510580F00C9407290C948C
:1051E00052295F3FE4F3983ED4F38695779567950F
:1051F000B795F795E7959F5FC1F7FE2B880F911D37
:105200009695879597F9089599278827089597F98E
:105210009F6780E870E060E008959FEF80EC08955C
:1052200000240A9416161706180609060895002485
:105230000A9412161306140605060895092E0394FF
:10524000000C11F4882352F0BB0F40F4BF2B11F473
:1052500060FF04C06F5F7F4F8F4F9F4F089557FDD2
:105260009058440F551F59F05F3F71F04795880FD4
:1052700097FB991F61F09F3F79F08795089512166B
:1052800013061406551FF2CF4695F1DF08C0161617
:1052900017061806991FF1CF8695710561050894C8
:1052A0000895E894BB2766277727CB0197F90895DF
:1052B000F999FECF92BD81BDF89A992780B50895DE
:1052C000262FF999FECF1FBA92BD81BD20BD0FB622
:1052D000F894FA9AF99A0FBE019608950E947929D6
:1052E000A59F900DB49F900DA49F800D911D11243A
:1052F0000895A29FB001B39FC001A39F700D811DAF
:105300001124911DB29F700D811D1124911D0895CE
:105310005058BB27AA270E94A0290C941E290E943E
:10532000102938F00E94172920F039F49F3F19F412
:1053300026F40C940D290EF4E095E7FB0C94072954
:10534000E92F0E942F2958F3BA17620773078407C1
:10535000950720F079F4A6F50C9451290EF4E09508
:105360000B2EBA2FA02D0B01B90190010C01CA011F
:10537000A0011124FF27591B99F0593F50F4503ECA
:1053800068F11A16F040A22F232F342F4427585FBC
:10539000F3CF469537952795A795F0405395C9F7D4
:1053A0007EF41F16BA0B620B730B840BBAF091508C
:1053B000A1F0FF0FBB1F661F771F881FC2F70EC02B
:1053C000BA0F621F731F841F48F4879577956795FE
:1053D000B795F7959E3F08F0B0CF9395880F08F0EA
:1053E0009927EE0F9795879508950E94092A0C94A6
:1053F0001E290E94172958F00E94102940F029F414
:105400005F3F29F00C94072951110C9452290C94F8
:105410000D290E942F2968F39923B1F3552391F3A5
:10542000951B550BBB27AA2762177307840738F013
:105430009F5F5F4F220F331F441FAA1FA9F335D070
:105440000E2E3AF0E0E832D091505040E695001C24
:10545000CAF72BD0FE2F29D0660F771F881FBB1FDE
:10546000261737074807AB07B0E809F0BB0B802DBC
:10547000BF01FF2793585F4F3AF09E3F510578F0E8
:105480000C9407290C9452295F3FE4F3983ED4F31F
:10549000869577956795B795F7959F5FC9F7880FBC
:1054A000911D9695879597F90895E1E0660F771F0E
:1054B000881FBB1F621773078407BA0720F0621B9F
:1054C000730B840BBA0BEE1F88F7E09508950E94CA
:1054D0006E2A6894B1110C94522908950E943729BC
:1054E00088F09F5798F0B92F9927B751B0F0E1F0A5
:1054F000660F771F881F991F1AF0BA95C9F714C055
:10550000B13091F00E945129B1E008950C945129D5
:10551000672F782F8827B85F39F0B93FCCF386958D
:1055200077956795B395D9F73EF4909580957095EA
:1055300061957F4F8F4F9F4F08950E94732808F405
:105540008FEF089516F00C94F72A0C940D296894A7
:105550000C9407290E943729A8F39923C1F3AEF3CD
:10556000DF93CF931F930F93FF92C92FDD278823DB
:105570002AF02197660F771F881FDAF720E030E0C6
:1055800040E85FEB9FE3883920F0803E38F02196B9
:105590008F770E948929E4EEF0E004C00E948929F7
:1055A000E1E1F1E00E94052B8B01BE01EC01FB2E35
:1055B0006F5771097595771F880B990B0E943828D2
:1055C00028E132E741E35FE30E94AA28AF2D98016A
:1055D000AE01FF900F911F91CF91DF910E94A02902
:1055E0000C941E290E947328880B990B08959F3FE5
:1055F00031F0915020F4879577956795B795880F8E
:10560000911D9695879597F90895DF93CF931F93F2
:105610000F93FF92EF92DF927B018C01689406C09A
:10562000DA2EEF010E94AA28FE01E894A5912591A7
:10563000359145915591A6F3EF010E94A029FE01F5
:105640009701A801DA9469F7DF90EF90FF900F912E
:105650001F91CF91DF910895991B79E004C0991FA4
:10566000961708F0961B881F7A95C9F780950895BC
:1056700097FB072E16F4009407D077FD09D00E94FF
:105680007E2B07FC05D03EF4909581959F4F0895A1
:10569000709561957F4F0895A1E21A2EAA1BBB1B3E
:1056A000FD010DC0AA1FBB1FEE1FFF1FA217B307EE
:1056B000E407F50720F0A21BB30BE40BF50B661F04
:1056C000771F881F991F1A9469F7609570958095C8
:1056D00090959B01AC01BD01CF010895EE0FFF1F16
:1056E000881F8BBF0790F691E02D1994B7FF0C949B
:1056F0006E290E946E29821B930B0895AA1BBB1B67
:1057000051E107C0AA1FBB1FA617B70710F0A61BC1
:10571000B70B881F991F5A95A9F780959095BC01E2
:10572000CD0108954F925F926F927F928F929F92D8
:10573000AF92BF92CF92DF92EF92FF920F931F939F
:10574000CF93DF938C01009799F4CB01DF91CF9138
:105750001F910F91FF90EF90DF90CF90BF90AF908F
:105760009F908F907F906F905F904F900C94B72692
:10577000FC01E60FF71F9C0122503109E217F307E5
:1057800008F4AEC0D901CD91DC911197C617D707A7
:1057900020F1C530D10578F0CE0104978617970720
:1057A00050F0C61BD70B2297C193D1936D937C9376
:1057B000CF010E945327C801DF91CF911F910F9114
:1057C000FF90EF90DF90CF90BF90AF909F908F9021
:1057D0007F906F905F904F9008955B01AC1ABD0A67
:1057E0004C018C0E9D1EA0919706B0919806512CED
:1057F000412CF12CE12C109731F580919506909178
:1058000096068815990509F05CC04616570608F0FB
:1058100058C080919D0290919E02009741F48DB7EF
:105820009EB74091A1025091A202841B950BE817EC
:10583000F90708F055C0F0939606E0939506F90134
:1058400071836083B8CF8D919C91119712966C9063
:10585000129713967C901397A815B90559F56C010A
:1058600042E0C40ED11CCA14DB0420F1AC014A1979
:105870005B09DA011296159780F062827382518378
:105880004083D9016D937C93E114F10471F0D70149
:105890001396FC93EE9312978ECF22968C0F9D1F3A
:1058A000F90191838083F301EFCFF0939806E093A1
:1058B000970681CF4816590608F42C017D01D301C3
:1058C0009ACFCB010E94B7267C01009749F0AE0128
:1058D000B8010E94732CC8010E94532787016BCF27
:1058E00010E000E068CFFB01DC0102C001900D92E6
:1058F00041505040D8F70895FC018191861721F05E
:105900008823D9F7992708953197CF010895FB018E
:10591000DC018D91019080190110D9F3990B089544
:10592000FB01DC0101900D920020E1F70895FB01DD
:1059300051915523A9F0BF01DC014D91451741114B
:10594000E1F759F4CD010190002049F04D91401547
:105950004111C9F3FB014111EFCF81E090E00197C4
:10596000089513E0C4E1D3E000E006C0802FFE01FB
:105970000E946E2B2196011DC531D10780E00807DA
:10598000A9F7F894FFCF0132323232303030303064
:105990003030303030000080BF000080BF00008019
:1059A000BF000080BF000080BF000080BF000080FB
:1059B000BF000080BF000080BFFFFFFFFFFFFFFFB1
:1059C000FF00000D0D0D0D0D0D0D0D0D0D0D0D0D2F
:1059D0000D0D0D0D0D0D0D0D0D0D0D0D0D0D0D0DF7
:1059E0000D8813000030750000D0070000A00F00E4
:1059F00000E80300000D0D0D0D0D0D0D0D0D0D0D2D
:105A00000D0D0D0D0D0D0D0D0D0D0D0D0D0D0D0DC6
:105A10000D0D0D0D0D0D0D0D0D0D0D0D0D0D0D0DB6
:105A20000D0D0D00009906800030313030363131D7
:105A3000313131313031350D303233303631313171
:105A40003131313031390D30313030363030303065
:105A500030303030390D33393830323D3F31313527
:105A60000D33303430323D3F3130320D333035304C
:105A7000323D3F3130330D33313030323D3F3039FC
:105A8000390D33313330323D3F3130320D33323620
:105A900030323D3F3130360D33333030323D3F31DF
:105AA00030310D33343230323D3F3130340D333408
:105AB0003630323D3F3130380D33393730323D3FAB
:105AC0003131340D000000007F069505C205EE0659
:105AD0003D06D1052F0600000000BB088E08EA082D
